S01500004C6971756964436F756E7465722E73726563C7
S11300000C9434000C94D7020C9451000C945100BD
S11300100C9451000C9451000C9451000C94510018
S11300200C9451000C9451000C9451000C94510008
S11300300C9451000C9451000C9451000C945100F8
S11300400C9451000C9451000C9451000C945100E8
S11300500C9451000C9451000C9451000C945100D8
S11300600C9451000C94510011241FBECFEFD8E022
S1130070DEBFCDBF11E0A0E0B1E0E6E3F7E002C0EF
S113008005900D92A033B107D9F721E0A0E3B1E0C8
S113009001C01D92A233B207E1F70E9446030C94FB
S11300A099030C94000082E68093B80084E0809366
S11300B0BC001092B900089584EA8093BC00ECEB74
S11300C0F0E080818823ECF708958093BB0084E8F6
S11300D08093BC00ECEBF0E080818823ECF708957A
S11300E0992364F040E050E029E730E021503109E1
S11300F0E9F74F5F5F4F84179507B4F70895EBEB6B
S1130100F0E080818260808384E88093BC00ECEB23
S1130110F0E080818823ECF781E090E00E94700099
S1130120EBEBF0E080818D7F808384E88093BC00DA
S1130130ECEBF0E080818823ECF70895EBEBF0E042
S113014090819E7F908394E89093BC00ECEBF0E068
S113015090819923ECF7EBEBF0E090819F70908312
S113016094E89093BC00ECEBF0E090819923ECF7D9
S1130170EBEBF0E09081807F892B808384E880938F
S1130180BC00ECEBF0E080818823ECF70E947F0058
S11301900895CF93C82FEBEBF0E080818E7F8083AE
S11301A084E88093BC00ECEBF0E080818823ECF7DA
S11301B0EBEBF0E080818F70808384E88093BC0057
S11301C0ECEBF0E080818823ECF7EBEBF0E080814E
S11301D09C2F907F892B808384E88093BC00ECEB78
S11301E0F0E080818823ECF70E947F00EBEBF0E0E5
S11301F080818F70808384E88093BC00ECEBF0E016
S113020080818823ECF7EBEBF0E0208130E1C39FA1
S1130210C0011124822B808384E88093BC00ECEB22
S1130220F0E080818823ECF70E947F00CF9108954D
S113023080E30E949E0080E30E949E0080E20E9470
S11302409E0088E20E94C9008CE00E94C90081E0FF
S11302500E94C90086E00E94C90080E80E94C9008B
S11302600895CF93C82FEBEBF0E080818160808309
S113027084E88093BC00ECEBF0E080818823ECF709
S1130280EBEBF0E080818F70808384E88093BC0086
S1130290ECEBF0E080818823ECF7EBEBF0E080817D
S11302A09C2F907F892B808384E88093BC00ECEBA7
S11302B0F0E080818823ECF70E947F00EBEBF0E014
S11302C080818F70808384E88093BC00ECEBF0E045
S11302D080818823ECF7EBEBF0E0208130E1C39FD1
S11302E0C0011124822B808384E88093BC00ECEB52
S11302F0F0E080818823ECF70E947F00CF9108957D
S1130300CF93DF93EC018881882331F021960E94FA
S1130310310189918111FBCFDF91CF910895FC01C7
S11303202081222341F0319680E090E001962191D2
S11303302111FCCF089580E090E00895CF92DF92E0
S1130340EF92FF92CF93DF93EC01CD348EEFD80779
S113035008F020C1E0E0F1E08CE686838DE6858339
S11303609E01ADECBCEC0E946803AC015695479528
S11303705695479556954795CA01880F991F440F7E
S1130380551F440F551F440F551F480F591FCE01C9
S1130390841B950BAC0180E3840F8483CA30D105A0
S11303A020F13695279536952795ABE7B4E10E9461
S11303B068039695879564E6689F9001699F300D60
S11303C01124CE01821B930B9C01241B350BADEC35
S11303D0BCEC0E94680396958795969587959695AB
S11303E08795805D8093030103C080E280930301BD
S11303F0C436D105C8F19E013695279536952795C3
S113040036952795A5ECB0E20E94680392958295F3
S11304108F7089279F70892728EE33E0829FA0017F
S1130420839F500D929F500D11249E013695279560
S113043036952795ABE7B4E10E94680396958795B6
S113044064E6689F9001699F300D1124241B350BCD
S113045036952795369527950E9468039695879536
S1130460805D8093020103C080E280930201C83E54
S113047093E0D90708F448C09E01329522952F7065
S113048023273F702327A7E4B3E00E9468039695CF
S11304908795969587959695879520E137E2829F73
S11304A0A001839F500D929F500D11249E013695FB
S11304B027953695279536952795A5ECB0E20E94A9
S11304C06803929582958F7089279F70892768EEBB
S11304D073E0869F9001879F300D969F300D112405
S11304E0241B350B369527953695279536952795F4
S11304F00E946803929582958F7089279F7089273F
S1130500805D8093010103C080E280930101C031CA
S113051087E2D807C8F1BE0180E090E020EA36E81F
S113052041E050E00E9449036B017C019E01329539
S113053022952F7023273F702327A7E4B3E00E945E
S1130540680396958795969587959695879540E146
S113055057E2849F9001859F300D949F300D1124A4
S1130560C21BD30BC701B6016C1B7D0B810991091A
S113057020E137E240E050E00E944903205D2093EF
S1130580000180E091E00CC080E28093000180E0F3
S113059091E006C0109231011092300188E091E0A0
S11305A0DF91CF91FF90EF90DF90CF9008951F924D
S11305B00F920FB60F9211242F933F934F935F9393
S11305C06F937F938F939F93AF93BF93CF93DF9357
S11305D0EF93FF938091300190913101C2969093F3
S11305E031018093300181E00E94C9008091300183
S11305F0909131010E949E01EC010E948F0190E9CB
S1130600981B892F0E94C900CE010E94800180ECB2
S11306100E94C90081E191E00E948001FF91EF9165
S1130620DF91CF91BF91AF919F918F917F916F9106
S11306305F914F913F912F910F900FBE0F901F909C
S1130640189582E08093690081E08DBB52985A9A94
S11306507894089514B815B80E9421030E94530099
S11306600E945C0080E70E9465000E94180180E8F7
S11306700E94C90085E191E00E94800180EC0E9403
S1130680C90082E291E00E94800108950E942A0339
S1130690FFCF052E97FB1EF400940E94600357FDC4
S11306A007D00E94770307FC03D04EF40C94600338
S11306B050954095309521953F4F4F4F5F4F08958A
S11306C090958095709561957F4F8F4F9F4F0895BA
S11306D0A29FB001B39FC001A39F700D811D11247F
S11306E0911DB29F700D811D1124911D0895A1E2E9
S11306F01A2EAA1BBB1BFD010DC0AA1FBB1FEE1F98
S1130700FF1FA217B307E407F50720F0A21BB30BE2
S1130710E40BF50B661F771F881F991F1A9469F75E
S113072060957095809590959B01AC01BD01CF01BA
S10907300895F894FFCFC8
S113073630303030303030004F766572666C6F770B
S11307460046764B00476F6F64206D6F726E696E5C
S113075667004665646F72204B61737065720000B2
S9030000FC
